:100000000C9434000C9449000C9449000C94490061
:100010000C9449000C9449000C9449000C9449003C
:100020000C9449000C9449000C9449000C9449002C
:100030000C9449000C9449000C9449000C9449001C
:100040000C9449000C9449000C9449000C9449000C
:100050000C9449000C9449000C9449000C944900FC
:100060000C9449000C94490011241FBECFEFD8E036
:10007000DEBFCDBF11E0A0E0B1E0ECE8F9E002C0E6
:1000800005900D92A833B107D9F70E94BA010C94DC
:10009000C4040C940000892B11F02A9A08952A9820
:1000A0000895009719F0019739F0089584B18C6292
:1000B00084B98CB5816503C0249A8CB580648CBDED
:1000C00008958EBD0DB407FEFDCF8EB50895E0EC0A
:1000D000F0E08081826080838FEC90E09093C50097
:1000E0008093C400E1ECF0E0808188618083089512
:1000F0009091C00095FFFCCF8093C60008950F93A8
:100100001F93CF93DF93FC0101900020E9F7EC01EE
:100110008F0101501109C017D10721F089910E9468
:100120007800F9CFDF91CF911F910F910895EF9251
:10013000FF920F931F93CF93DF9300D01F92CDB701
:10014000DEB78901009721F0019719F4606801C0BA
:100150006F770230110510F0606401C06F7B80E0A2
:1001600090E04A835B8369830E944B006981862FFC
:100170000E9461004A81E42E5B81F52E0E0D1F1D49
:10018000E016F10641F0F70180810E946100F7015D
:1001900081937F01F5CF81E090E00F900F900F9059
:1001A000DF91CF911F910F91FF90EF900C944B0036
:1001B000CF93DF931F92CDB7DEB7198221E030E0F5
:1001C000AE014F5F5F4F60E070E081E090E00E9421
:1001D000970089810F90DF91CF910895CF93DF939E
:1001E00000D01F92CDB7DEB760586B83898388E05B
:1001F0008A8322E030E0AE014F5F5F4F6CE270E037
:1002000080E090E00E94970020E130E0AE014D5F79
:100210005F4F68E370E080E090E00E9497000F90ED
:100220000F900F90DF91CF910895CF93DF931F929E
:10023000CDB7DEB7198221E030E0AE014F5F5F4FEE
:1002400069E370E081E090E00E94970089818F73FC
:1002500090E00F90DF91CF9108957F928F929F92BF
:10026000AF92BF92CF92DF92EF92FF920F931F93C4
:10027000CF93DF93CDB7DEB7A6970FB6F894DEBF66
:100280000FBECDBF4C016E0181E2C80ED11C86E0CD
:10029000F60111928A95E9F78E010F5F1F4F80E2F8
:1002A000F80111928A95E9F7E12CF12C80E0A82E53
:1002B00081E0B82E90E2792EE814F90409F446C0E2
:1002C00026E030E0A60162E370E081E090E00E9469
:1002D00097008EA1837090E02DA1285F02C0880F47
:1002E000991F2A95E2F79F938F938CA1837090E0DA
:1002F0002BA1285F02C0880F991F2A95E2F79F93D0
:100300008F938AA1837090E029A1285F02C0880F93
:10031000991F2A95E2F79F938F93BF92AF921F92F6
:100320007F921F930F930E94DF01C8010E947F00FC
:10033000F801872D11928A95E9F79FEFE91AF90ADA
:100340000FB6F894DEBF0FBECDBFB6CFA6960FB6E0
:10035000F894DEBF0FBECDBFDF91CF911F910F91FB
:10036000FF90EF90DF90CF90BF90AF909F908F90D5
:100370007F9008958FE39CE90197F1F700C000009A
:100380000E94670080E090E00E9451000E94D80027
:10039000853E41F08BE091E00E947F0081E090E09B
:1003A0000E94C40460E170E089E090E00E94EE00E9
:1003B0000E9415010097E1F30E942D01F9CFAEE0F4
:1003C000B0E0E5EEF1E00C949B040D891E898F8965
:1003D000988D26E02C831A83098397FF02C080E062
:1003E00090E801979E838D83AE01455E5F4F698DD6
:1003F0007A8DCE0101960E940F024D815E8157FDDC
:100400000AC02F813885421753070CF49A01F8016E
:10041000E20FF31F10822E96E4E00C94B704ACE0D8
:10042000B0E0E5E1F2E00C948D047C016B018A01FF
:10043000FC0117821682838181FFBDC1CE01019626
:100440004C01F7019381F60193FD859193FF819112
:100450006F01882309F4ABC1853239F493FD85918E
:1004600093FF81916F01853229F4B70190E00E94DA
:10047000F703E7CF512C312C20E02032A0F48B324F
:1004800069F030F4803259F0833269F420612CC075
:100490008D3239F0803339F4216026C02260246027
:1004A00023C0286021C027FD27C030ED380F3A3027
:1004B00078F426FF06C0FAE05F9E300D1124532E1B
:1004C00013C08AE0389E300D1124332E20620CC0F8
:1004D0008E3221F426FD6BC1206406C08C3611F4E7
:1004E000206802C0883641F4F60193FD859193FFA0
:1004F00081916F018111C1CF982F9F7D95549330C9
:1005000028F40C5F1F4FFFE3F9830DC0833631F0F1
:10051000833771F0833509F05BC022C0F801808118
:1005200089830E5F1F4F44244394512C540115C0FE
:100530003801F2E06F0E711CF801A080B18026FF37
:1005400003C0652D70E002C06FEF7FEFC5012C87FF
:100550000E94EC032C0183012C852F77222E17C0DB
:100560003801F2E06F0E711CF801A080B18026FF07
:1005700003C0652D70E002C06FEF7FEFC5012C87CF
:100580000E94E1032C012C852068222E830123FC8C
:100590001BC0832D90E048165906B0F4B70180E2E5
:1005A00090E00E94F7033A94F4CFF50127FC85917F
:1005B00027FE81915F01B70190E00E94F70331109F
:1005C0003A94F1E04F1A51084114510471F7E5C013
:1005D000843611F0893639F5F80127FF07C06081AC
:1005E0007181828193810C5F1F4F08C0608171818E
:1005F000072E000C880B990B0E5F1F4F2F76722E63
:1006000097FF09C090958095709561957F4F8F4FAA
:100610009F4F2068722E2AE030E0A4010E942F0430
:10062000A82EA81844C0853729F42F7EB22E2AE0C0
:1006300030E025C0F22FF97FBF2E8F36C1F018F4BD
:10064000883579F0B4C0803719F0883721F0AFC011
:100650002F2F2061B22EB4FE0DC08B2D8460B82EDA
:1006600009C024FF0AC09F2F9660B92E06C028E05B
:1006700030E005C020E130E002C020E132E0F801C6
:10068000B7FE07C060817181828193810C5F1F4F2B
:1006900006C06081718180E090E00E5F1F4FA40171
:1006A0000E942F04A82EA818FB2DFF777F2E76FE20
:1006B0000BC0372D3E7FA51450F474FE0AC072FCA7
:1006C00008C0372D3E7E05C0BA2C372D03C0BA2C8A
:1006D00001C0B52C34FF0DC0FE01EA0DF11D808173
:1006E000803311F4397E09C032FF06C0B394B3944D
:1006F00004C0832F867809F0B39433FD13C030FF14
:1007000006C05A2CB31418F4530C5B18B32CB31452
:1007100068F4B70180E290E03C870E94F703B3944D
:100720003C85F5CFB31410F43B1801C0312C34FFD5
:1007300012C0B70180E390E03C870E94F7033C853C
:1007400032FF17C031FD03C088E790E002C088E5A2
:1007500090E0B7010CC0832F867859F031FF02C0BA
:100760008BE201C080E237FD8DE2B70190E00E948C
:10077000F703A51438F4B70180E390E00E94F70373
:100780005A94F7CFAA94F401EA0DF11D8081B701C4
:1007900090E00E94F703A110F5CF332009F451CE69
:1007A000B70180E290E00E94F7033A94F6CFF70198
:1007B0008681978102C08FEF9FEF2C96E2E10C9427
:1007C000A904FC010590615070400110D8F7809594
:1007D00090958E0F9F1F0895FC016150704001900D
:1007E0000110D8F7809590958E0F9F1F08950F9355
:1007F0001F93CF93DF93FB01238121FD03C08FEF74
:100800009FEF28C022FF16C0468157812481358181
:100810004217530744F4A081B1819D012F5F3F4FE0
:10082000318320838C93268137812F5F3F4F37831D
:10083000268310C0EB01092F182F0084F185E02DCD
:100840000995892BE1F68E819F8101969F838E8386
:10085000812F902FDF91CF911F910F910895FA0171
:10086000AA27283051F1203181F1E8946F936E7FEF
:100870006E5F7F4F8F4F9F4FAF4FB1E03ED0B4E0E0
:100880003CD0670F781F891F9A1FA11D680F791F21
:100890008A1F911DA11D6A0F711D811D911DA11D32
:1008A00020D009F468943F912AE0269F1124301942
:1008B000305D3193DEF6CF010895462F4770405DDD
:1008C0004193B3E00FD0C9F7F6CF462F4F70405D8C
:1008D0004A3318F0495D31FD4052419302D0A9F7E7
:1008E000EACFB4E0A6959795879577956795BA95E1
:1008F000C9F700976105710508959B01AC010A2EA7
:1009000006945795479537952795BA95C9F7620F7D
:10091000731F841F951FA01D08952F923F924F9221
:100920005F926F927F928F929F92AF92BF92CF927F
:10093000DF92EF92FF920F931F93CF93DF93CDB788
:10094000DEB7CA1BDB0B0FB6F894DEBF0FBECDBF00
:1009500009942A88398848885F846E847D848C84D1
:100960009B84AA84B984C884DF80EE80FD800C81DA
:100970001B81AA81B981CE0FD11D0FB6F894DEBFBD
:0C0980000FBECDBFED010895F894FFCF2D
:10098C0025640925640925640D0A004552524F520D
:10099C003A2077726F6E67206465766963652049CB
:1009AC00442E20436865636B20636F6E6E656374C1
:0809BC00696F6E732E0D0A0035
:00000001FF
